{
  "_format": "hh-sol-artifact-1",
  "contractName": "BookDatabase",
  "sourceName": "contracts/BookDatabase.sol",
  "abi": [
    {
      "inputs": [],
      "stateMutability": "nonpayable",
      "type": "constructor"
    },
    {
      "inputs": [
        {
          "internalType": "string",
          "name": "title",
          "type": "string"
        },
        {
          "internalType": "string",
          "name": "author",
          "type": "string"
        },
        {
          "internalType": "string",
          "name": "genre",
          "type": "string"
        },
        {
          "internalType": "uint32",
          "name": "year",
          "type": "uint32"
        },
        {
          "internalType": "uint16",
          "name": "pages",
          "type": "uint16"
        }
      ],
      "name": "addBook",
      "outputs": [],
      "stateMutability": "nonpayable",
      "type": "function"
    },
    {
      "inputs": [
        {
          "internalType": "uint32",
          "name": "",
          "type": "uint32"
        }
      ],
      "name": "books",
      "outputs": [
        {
          "internalType": "string",
          "name": "title",
          "type": "string"
        },
        {
          "internalType": "string",
          "name": "author",
          "type": "string"
        },
        {
          "internalType": "string",
          "name": "genre",
          "type": "string"
        },
        {
          "internalType": "uint32",
          "name": "year",
          "type": "uint32"
        },
        {
          "internalType": "uint16",
          "name": "pages",
          "type": "uint16"
        }
      ],
      "stateMutability": "view",
      "type": "function"
    },
    {
      "inputs": [],
      "name": "countBooks",
      "outputs": [
        {
          "internalType": "uint256",
          "name": "",
          "type": "uint256"
        }
      ],
      "stateMutability": "view",
      "type": "function"
    },
    {
      "inputs": [
        {
          "internalType": "uint32",
          "name": "id",
          "type": "uint32"
        }
      ],
      "name": "deleteBook",
      "outputs": [],
      "stateMutability": "nonpayable",
      "type": "function"
    },
    {
      "inputs": [
        {
          "internalType": "uint32",
          "name": "id",
          "type": "uint32"
        }
      ],
      "name": "getBook",
      "outputs": [
        {
          "components": [
            {
              "internalType": "string",
              "name": "title",
              "type": "string"
            },
            {
              "internalType": "string",
              "name": "author",
              "type": "string"
            },
            {
              "internalType": "string",
              "name": "genre",
              "type": "string"
            },
            {
              "internalType": "uint32",
              "name": "year",
              "type": "uint32"
            },
            {
              "internalType": "uint16",
              "name": "pages",
              "type": "uint16"
            }
          ],
          "internalType": "struct BookDatabase.Book",
          "name": "",
          "type": "tuple"
        }
      ],
      "stateMutability": "view",
      "type": "function"
    },
    {
      "inputs": [
        {
          "internalType": "uint32",
          "name": "id",
          "type": "uint32"
        },
        {
          "internalType": "string",
          "name": "title",
          "type": "string"
        },
        {
          "internalType": "string",
          "name": "author",
          "type": "string"
        },
        {
          "internalType": "string",
          "name": "genre",
          "type": "string"
        },
        {
          "internalType": "uint32",
          "name": "year",
          "type": "uint32"
        },
        {
          "internalType": "uint16",
          "name": "pages",
          "type": "uint16"
        }
      ],
      "name": "updateBook",
      "outputs": [],
      "stateMutability": "nonpayable",
      "type": "function"
    }
  ],
  "bytecode": "0x60a060405260008060006101000a81548163ffffffff021916908363ffffffff160217905550600060015534801561003657600080fd5b503373ffffffffffffffffffffffffffffffffffffffff1660808173ffffffffffffffffffffffffffffffffffffffff168152505060805161151a6100946000396000818161013f0152818161031c0152610676015261151a6000f3fe608060405234801561001057600080fd5b50600436106100625760003560e01c8063054a86b31461006757806346d1c15114610083578063553e4df21461009f57806368d748ca146100bd5780637f1358b1146100f1578063cf987c9b1461010d575b600080fd5b610081600480360381019061007c9190610c84565b61013d565b005b61009d60048036038101906100989190610d53565b61031a565b005b6100a7610482565b6040516100b49190610d99565b60405180910390f35b6100d760048036038101906100d29190610d53565b610488565b6040516100e8959493929190610e51565b60405180910390f35b61010b60048036038101906101069190610eb9565b610674565b005b61012760048036038101906101229190610d53565b6107e9565b6040516101349190611086565b60405180910390f35b7f000000000000000000000000000000000000000000000000000000000000000073ffffffffffffffffffffffffffffffffffffffff163373ffffffffffffffffffffffffffffffffffffffff16146101cb576040517f08c379a00000000000000000000000000000000000000000000000000000000081526004016101c29061111a565b60405180910390fd5b6040518060a001604052808681526020018581526020018481526020018363ffffffff1681526020018261ffff16815250600260008060009054906101000a900463ffffffff1663ffffffff1663ffffffff16815260200190815260200160002060008201518160000190816102419190611346565b5060208201518160010190816102579190611346565b50604082015181600201908161026d9190611346565b5060608201518160030160006101000a81548163ffffffff021916908363ffffffff16021790555060808201518160030160046101000a81548161ffff021916908361ffff16021790555090505060008081819054906101000a900463ffffffff16809291906102dc90611447565b91906101000a81548163ffffffff021916908363ffffffff160217905550506001600081548092919061030e90611473565b91905055505050505050565b7f000000000000000000000000000000000000000000000000000000000000000073ffffffffffffffffffffffffffffffffffffffff163373ffffffffffffffffffffffffffffffffffffffff16146103a8576040517f08c379a000000000000000000000000000000000000000000000000000000000815260040161039f9061111a565b60405180910390fd5b6000600260008363ffffffff1663ffffffff16815260200190815260200160002060030160009054906101000a900463ffffffff1663ffffffff161461047f57600160008154809291906103fb906114bb565b9190505550600260008263ffffffff1663ffffffff168152602001908152602001600020600080820160006104309190610a1e565b6001820160006104409190610a1e565b6002820160006104509190610a1e565b6003820160006101000a81549063ffffffff02191690556003820160046101000a81549061ffff021916905550505b50565b60015481565b60026020528060005260406000206000915090508060000180546104ab90611169565b80601f01602080910402602001604051908101604052809291908181526020018280546104d790611169565b80156105245780601f106104f957610100808354040283529160200191610524565b820191906000526020600020905b81548152906001019060200180831161050757829003601f168201915b50505050509080600101805461053990611169565b80601f016020809104026020016040519081016040528092919081815260200182805461056590611169565b80156105b25780601f10610587576101008083540402835291602001916105b2565b820191906000526020600020905b81548152906001019060200180831161059557829003601f168201915b5050505050908060020180546105c790611169565b80601f01602080910402602001604051908101604052809291908181526020018280546105f390611169565b80156106405780601f1061061557610100808354040283529160200191610640565b820191906000526020600020905b81548152906001019060200180831161062357829003601f168201915b5050505050908060030160009054906101000a900463ffffffff16908060030160049054906101000a900461ffff16905085565b7f000000000000000000000000000000000000000000000000000000000000000073ffffffffffffffffffffffffffffffffffffffff163373ffffffffffffffffffffffffffffffffffffffff1614610702576040517f08c379a00000000000000000000000000000000000000000000000000000000081526004016106f99061111a565b60405180910390fd5b6040518060a001604052808681526020018581526020018481526020018363ffffffff1681526020018261ffff16815250600260008863ffffffff1663ffffffff16815260200190815260200160002060008201518160000190816107679190611346565b50602082015181600101908161077d9190611346565b5060408201518160020190816107939190611346565b5060608201518160030160006101000a81548163ffffffff021916908363ffffffff16021790555060808201518160030160046101000a81548161ffff021916908361ffff160217905550905050505050505050565b6107f1610a5e565b600260008363ffffffff1663ffffffff1681526020019081526020016000206040518060a001604052908160008201805461082b90611169565b80601f016020809104026020016040519081016040528092919081815260200182805461085790611169565b80156108a45780601f10610879576101008083540402835291602001916108a4565b820191906000526020600020905b81548152906001019060200180831161088757829003601f168201915b505050505081526020016001820180546108bd90611169565b80601f01602080910402602001604051908101604052809291908181526020018280546108e990611169565b80156109365780601f1061090b57610100808354040283529160200191610936565b820191906000526020600020905b81548152906001019060200180831161091957829003601f168201915b5050505050815260200160028201805461094f90611169565b80601f016020809104026020016040519081016040528092919081815260200182805461097b90611169565b80156109c85780601f1061099d576101008083540402835291602001916109c8565b820191906000526020600020905b8154815290600101906020018083116109ab57829003601f168201915b505050505081526020016003820160009054906101000a900463ffffffff1663ffffffff1663ffffffff1681526020016003820160049054906101000a900461ffff1661ffff1661ffff16815250509050919050565b508054610a2a90611169565b6000825580601f10610a3c5750610a5b565b601f016020900490600052602060002090810190610a5a9190610a97565b5b50565b6040518060a00160405280606081526020016060815260200160608152602001600063ffffffff168152602001600061ffff1681525090565b5b80821115610ab0576000816000905550600101610a98565b5090565b6000604051905090565b600080fd5b600080fd5b600080fd5b600080fd5b6000601f19601f8301169050919050565b7f4e487b7100000000000000000000000000000000000000000000000000000000600052604160045260246000fd5b610b1b82610ad2565b810181811067ffffffffffffffff82111715610b3a57610b39610ae3565b5b80604052505050565b6000610b4d610ab4565b9050610b598282610b12565b919050565b600067ffffffffffffffff821115610b7957610b78610ae3565b5b610b8282610ad2565b9050602081019050919050565b82818337600083830152505050565b6000610bb1610bac84610b5e565b610b43565b905082815260208101848484011115610bcd57610bcc610acd565b5b610bd8848285610b8f565b509392505050565b600082601f830112610bf557610bf4610ac8565b5b8135610c05848260208601610b9e565b91505092915050565b600063ffffffff82169050919050565b610c2781610c0e565b8114610c3257600080fd5b50565b600081359050610c4481610c1e565b92915050565b600061ffff82169050919050565b610c6181610c4a565b8114610c6c57600080fd5b50565b600081359050610c7e81610c58565b92915050565b600080600080600060a08688031215610ca057610c9f610abe565b5b600086013567ffffffffffffffff811115610cbe57610cbd610ac3565b5b610cca88828901610be0565b955050602086013567ffffffffffffffff811115610ceb57610cea610ac3565b5b610cf788828901610be0565b945050604086013567ffffffffffffffff811115610d1857610d17610ac3565b5b610d2488828901610be0565b9350506060610d3588828901610c35565b9250506080610d4688828901610c6f565b9150509295509295909350565b600060208284031215610d6957610d68610abe565b5b6000610d7784828501610c35565b91505092915050565b6000819050919050565b610d9381610d80565b82525050565b6000602082019050610dae6000830184610d8a565b92915050565b600081519050919050565b600082825260208201905092915050565b60005b83811015610dee578082015181840152602081019050610dd3565b60008484015250505050565b6000610e0582610db4565b610e0f8185610dbf565b9350610e1f818560208601610dd0565b610e2881610ad2565b840191505092915050565b610e3c81610c0e565b82525050565b610e4b81610c4a565b82525050565b600060a0820190508181036000830152610e6b8188610dfa565b90508181036020830152610e7f8187610dfa565b90508181036040830152610e938186610dfa565b9050610ea26060830185610e33565b610eaf6080830184610e42565b9695505050505050565b60008060008060008060c08789031215610ed657610ed5610abe565b5b6000610ee489828a01610c35565b965050602087013567ffffffffffffffff811115610f0557610f04610ac3565b5b610f1189828a01610be0565b955050604087013567ffffffffffffffff811115610f3257610f31610ac3565b5b610f3e89828a01610be0565b945050606087013567ffffffffffffffff811115610f5f57610f5e610ac3565b5b610f6b89828a01610be0565b9350506080610f7c89828a01610c35565b92505060a0610f8d89828a01610c6f565b9150509295509295509295565b600082825260208201905092915050565b6000610fb682610db4565b610fc08185610f9a565b9350610fd0818560208601610dd0565b610fd981610ad2565b840191505092915050565b610fed81610c0e565b82525050565b610ffc81610c4a565b82525050565b600060a083016000830151848203600086015261101f8282610fab565b915050602083015184820360208601526110398282610fab565b915050604083015184820360408601526110538282610fab565b91505060608301516110686060860182610fe4565b50608083015161107b6080860182610ff3565b508091505092915050565b600060208201905081810360008301526110a08184611002565b905092915050565b7f4f6e6c79206f776e65722063616e2063616c6c20746869732066756e6374696f60008201527f6e00000000000000000000000000000000000000000000000000000000000000602082015250565b6000611104602183610dbf565b915061110f826110a8565b604082019050919050565b60006020820190508181036000830152611133816110f7565b9050919050565b7f4e487b7100000000000000000000000000000000000000000000000000000000600052602260045260246000fd5b6000600282049050600182168061118157607f821691505b6020821081036111945761119361113a565b5b50919050565b60008190508160005260206000209050919050565b60006020601f8301049050919050565b600082821b905092915050565b6000600883026111fc7fffffffffffffffffffffffffffffffffffffffffffffffffffffffffffffffff826111bf565b61120686836111bf565b95508019841693508086168417925050509392505050565b6000819050919050565b600061124361123e61123984610d80565b61121e565b610d80565b9050919050565b6000819050919050565b61125d83611228565b6112716112698261124a565b8484546111cc565b825550505050565b600090565b611286611279565b611291818484611254565b505050565b5b818110156112b5576112aa60008261127e565b600181019050611297565b5050565b601f8211156112fa576112cb8161119a565b6112d4846111af565b810160208510156112e3578190505b6112f76112ef856111af565b830182611296565b50505b505050565b600082821c905092915050565b600061131d600019846008026112ff565b1980831691505092915050565b6000611336838361130c565b9150826002028217905092915050565b61134f82610db4565b67ffffffffffffffff81111561136857611367610ae3565b5b6113728254611169565b61137d8282856112b9565b600060209050601f8311600181146113b0576000841561139e578287015190505b6113a8858261132a565b865550611410565b601f1984166113be8661119a565b60005b828110156113e6578489015182556001820191506020850194506020810190506113c1565b8683101561140357848901516113ff601f89168261130c565b8355505b6001600288020188555050505b505050505050565b7f4e487b7100000000000000000000000000000000000000000000000000000000600052601160045260246000fd5b600061145282610c0e565b915063ffffffff820361146857611467611418565b5b600182019050919050565b600061147e82610d80565b91507fffffffffffffffffffffffffffffffffffffffffffffffffffffffffffffffff82036114b0576114af611418565b5b600182019050919050565b60006114c682610d80565b9150600082036114d9576114d8611418565b5b60018203905091905056fea2646970667358221220025ee6416cf4d2b8ac20379d9ad04f4538847f9e60b1223330823aff6ba4649964736f6c63430008180033",
  "linkReferences": {},
  "deployedLinkReferences": {}
}